{
  "_format": "hh-sol-artifact-1",
  "contractName": "Multicall",
  "sourceName": "contracts/Multicall.sol",
  "abi": [
    {
      "inputs": [
        {
          "internalType": "address[]",
          "name": "targets_",
          "type": "address[]"
        },
        {
          "internalType": "bytes[]",
          "name": "data_",
          "type": "bytes[]"
        }
      ],
      "name": "aggregate",
      "outputs": [
        {
          "internalType": "bytes[]",
          "name": "returnData",
          "type": "bytes[]"
        }
      ],
      "stateMutability": "view",
      "type": "function"
    }
  ],
  "bytecode": "0x608060405234801561001057600080fd5b506105db806100206000396000f3fe608060405234801561001057600080fd5b506004361061002b5760003560e01c8063252dba4214610030575b600080fd5b61004361003e3660046102e7565b610059565b60405161005091906104b0565b60405180910390f35b80516060908067ffffffffffffffff81111561007757610077610277565b6040519080825280602002602001820160405280156100aa57816020015b60608152602001906001900390816100955790505b50915060005b8181101561012c576100fc8482815181106100cd576100cd610512565b6020026020010151600001518583815181106100eb576100eb610512565b602002602001015160200151610133565b83828151811061010e5761010e610512565b6020026020010181905250808061012490610528565b9150506100b0565b5050919050565b606061015883836040518060600160405280602581526020016105816025913961015f565b9392505050565b60606001600160a01b0384163b6101c95760405162461bcd60e51b8152602060048201526024808201527f416464726573733a207374617469632063616c6c20746f206e6f6e2d636f6e746044820152631c9858dd60e21b60648201526084015b60405180910390fd5b600080856001600160a01b0316856040516101e49190610551565b600060405180830381855afa9150503d806000811461021f576040519150601f19603f3d011682016040523d82523d6000602084013e610224565b606091505b509150915061023482828661023e565b9695505050505050565b6060831561024d575081610158565b82511561025d5782518084602001fd5b8160405162461bcd60e51b81526004016101c0919061056d565b634e487b7160e01b600052604160045260246000fd5b6040805190810167ffffffffffffffff811182821017156102b0576102b0610277565b60405290565b604051601f8201601f1916810167ffffffffffffffff811182821017156102df576102df610277565b604052919050565b600060208083850312156102fa57600080fd5b823567ffffffffffffffff8082111561031257600080fd5b818501915085601f83011261032657600080fd5b81358181111561033857610338610277565b8060051b6103478582016102b6565b918252838101850191858101908984111561036157600080fd5b86860192505b838310156104475782358581111561037f5760008081fd5b86016040601f19828d0381018213156103985760008081fd5b6103a061028d565b838b01356001600160a01b03811681146103ba5760008081fd5b815283830135898111156103ce5760008081fd5b8085019450508d603f8501126103e45760008081fd5b8a840135898111156103f8576103f8610277565b6104088c84601f840116016102b6565b92508083528e8482870101111561041f5760008081fd5b808486018d85013760009083018c0152808b0191909152845250509186019190860190610367565b9998505050505050505050565b60005b8381101561046f578181015183820152602001610457565b8381111561047e576000848401525b50505050565b6000815180845261049c816020860160208601610454565b601f01601f19169290920160200192915050565b6000602080830181845280855180835260408601915060408160051b870101925083870160005b8281101561050557603f198886030184526104f3858351610484565b945092850192908501906001016104d7565b5092979650505050505050565b634e487b7160e01b600052603260045260246000fd5b600060001982141561054a57634e487b7160e01b600052601160045260246000fd5b5060010190565b60008251610563818460208701610454565b9190910192915050565b602081526000610158602083018461048456fe416464726573733a206c6f772d6c6576656c207374617469632063616c6c206661696c6564a2646970667358221220409c6e59409e4ecc49e3344410cedbcd37541512bc1fc36ecee94cde0a92ae4164736f6c63430008080033",
  "linkReferences": {},
  "deployedLinkReferences": {}
}